{
	"data": {
		"bytecode": {
			"linkReferences": {},
			"object": "60a06040523480156200001157600080fd5b506040516200100b3803806200100b833981810160405281019062000037919062000178565b620000576200004b6200009560201b60201c565b6200009d60201b60201c565b8073ffffffffffffffffffffffffffffffffffffffff1660808173ffffffffffffffffffffffffffffffffffffffff1660601b8152505050620001fd565b600033905090565b60008060009054906101000a900473ffffffffffffffffffffffffffffffffffffffff169050816000806101000a81548173ffffffffffffffffffffffffffffffffffffffff021916908373ffffffffffffffffffffffffffffffffffffffff1602179055508173ffffffffffffffffffffffffffffffffffffffff168173ffffffffffffffffffffffffffffffffffffffff167f8be0079c531659141344cd1fd0a4f28419497f9722a3daafe3b4186f6b6457e060405160405180910390a35050565b6000815190506200017281620001e3565b92915050565b600060208284031215620001915762000190620001de565b5b6000620001a18482850162000161565b91505092915050565b6000620001b782620001be565b9050919050565b600073ffffffffffffffffffffffffffffffffffffffff82169050919050565b600080fd5b620001ee81620001aa565b8114620001fa57600080fd5b50565b60805160601c610de862000223600039600081816102c3015261035c0152610de86000f3fe608060405234801561001057600080fd5b506004361061004c5760003560e01c8063715018a6146100515780638da5cb5b1461005b578063bd0625ab14610079578063f2fde38b14610095575b600080fd5b6100596100b1565b005b610063610139565b6040516100709190610a41565b60405180910390f35b610093600480360381019061008e91906108ff565b610162565b005b6100af60048036038101906100aa919061081a565b61042c565b005b6100b9610524565b73ffffffffffffffffffffffffffffffffffffffff166100d7610139565b73ffffffffffffffffffffffffffffffffffffffff161461012d576040517f08c379a000000000000000000000000000000000000000000000000000000000815260040161012490610adc565b60405180910390fd5b610137600061052c565b565b60008060009054906101000a900473ffffffffffffffffffffffffffffffffffffffff16905090565b61016a610524565b73ffffffffffffffffffffffffffffffffffffffff16610188610139565b73ffffffffffffffffffffffffffffffffffffffff16146101de576040517f08c379a00000000000000000000000000000000000000000000000000000000081526004016101d590610adc565b60405180910390fd5b6000806000848460049080926101f693929190610b6e565b8101906102039190610847565b925092509250816000015173ffffffffffffffffffffffffffffffffffffffff166323b872dd333085608001516040518463ffffffff1660e01b815260040161024e93929190610a5c565b602060405180830381600087803b15801561026857600080fd5b505af115801561027c573d6000803e3d6000fd5b505050506040513d601f19601f820116820180604052508101906102a091906108d2565b50816000015173ffffffffffffffffffffffffffffffffffffffff1663095ea7b37f000000000000000000000000000000000000000000000000000000000000000084608001516040518363ffffffff1660e01b8152600401610304929190610a93565b602060405180830381600087803b15801561031e57600080fd5b505af1158015610332573d6000803e3d6000fd5b505050506040513d601f19601f8201168201806040525081019061035691906108d2565b506000807f000000000000000000000000000000000000000000000000000000000000000073ffffffffffffffffffffffffffffffffffffffff1687876040516103a1929190610a28565b6000604051808303816000865af19150503d80600081146103de576040519150601f19603f3d011682016040523d82523d6000602084013e6103e3565b606091505b5091509150811561041d5760008082806020019051810190610405919061095f565b915091508982101561041657600080fd5b5050610422565b600080fd5b5050505050505050565b610434610524565b73ffffffffffffffffffffffffffffffffffffffff16610452610139565b73ffffffffffffffffffffffffffffffffffffffff16146104a8576040517f08c379a000000000000000000000000000000000000000000000000000000000815260040161049f90610adc565b60405180910390fd5b600073ffffffffffffffffffffffffffffffffffffffff168173ffffffffffffffffffffffffffffffffffffffff161415610518576040517f08c379a000000000000000000000000000000000000000000000000000000000815260040161050f90610abc565b60405180910390fd5b6105218161052c565b50565b600033905090565b60008060009054906101000a900473ffffffffffffffffffffffffffffffffffffffff169050816000806101000a81548173ffffffffffffffffffffffffffffffffffffffff021916908373ffffffffffffffffffffffffffffffffffffffff1602179055508173ffffffffffffffffffffffffffffffffffffffff168173ffffffffffffffffffffffffffffffffffffffff167f8be0079c531659141344cd1fd0a4f28419497f9722a3daafe3b4186f6b6457e060405160405180910390a35050565b60006106036105fe84610b21565b610afc565b90508281526020810184848401111561061f5761061e610ca7565b5b61062a848285610c15565b509392505050565b60008135905061064181610d3f565b92915050565b60008135905061065681610d56565b92915050565b60008151905061066b81610d6d565b92915050565b60008083601f84011261068757610686610c89565b5b8235905067ffffffffffffffff8111156106a4576106a3610c84565b5b6020830191508360018202830111156106c0576106bf610ca2565b5b9250929050565b600082601f8301126106dc576106db610c89565b5b81356106ec8482602086016105f0565b91505092915050565b60008135905061070481610d84565b92915050565b6000610100828403121561072157610720610c8e565b5b61072c610100610afc565b9050600061073c848285016106f5565b6000830152506020610750848285016106f5565b602083015250604061076484828501610632565b604083015250606061077884828501610632565b606083015250608061078c848285016107f0565b60808301525060a06107a0848285016107f0565b60a08301525060c06107b4848285016107f0565b60c08301525060e082013567ffffffffffffffff8111156107d8576107d7610c98565b5b6107e4848285016106c7565b60e08301525092915050565b6000813590506107ff81610d9b565b92915050565b60008151905061081481610d9b565b92915050565b6000602082840312156108305761082f610cb1565b5b600061083e84828501610632565b91505092915050565b6000806000606084860312156108605761085f610cb1565b5b600061086e86828701610647565b935050602084013567ffffffffffffffff81111561088f5761088e610cac565b5b61089b8682870161070a565b925050604084013567ffffffffffffffff8111156108bc576108bb610cac565b5b6108c8868287016106c7565b9150509250925092565b6000602082840312156108e8576108e7610cb1565b5b60006108f68482850161065c565b91505092915050565b60008060006040848603121561091857610917610cb1565b5b6000610926868287016107f0565b935050602084013567ffffffffffffffff81111561094757610946610cac565b5b61095386828701610671565b92509250509250925092565b6000806040838503121561097657610975610cb1565b5b600061098485828601610805565b925050602061099585828601610805565b9150509250929050565b6109a881610ba9565b82525050565b60006109ba8385610b52565b93506109c7838584610c15565b82840190509392505050565b60006109e0602683610b5d565b91506109eb82610cc7565b604082019050919050565b6000610a03602083610b5d565b9150610a0e82610d16565b602082019050919050565b610a2281610c0b565b82525050565b6000610a358284866109ae565b91508190509392505050565b6000602082019050610a56600083018461099f565b92915050565b6000606082019050610a71600083018661099f565b610a7e602083018561099f565b610a8b6040830184610a19565b949350505050565b6000604082019050610aa8600083018561099f565b610ab56020830184610a19565b9392505050565b60006020820190508181036000830152610ad5816109d3565b9050919050565b60006020820190508181036000830152610af5816109f6565b9050919050565b6000610b06610b17565b9050610b128282610c24565b919050565b6000604051905090565b600067ffffffffffffffff821115610b3c57610b3b610c55565b5b610b4582610cb6565b9050602081019050919050565b600081905092915050565b600082825260208201905092915050565b60008085851115610b8257610b81610c9d565b5b83861115610b9357610b92610c93565b5b6001850283019150848603905094509492505050565b6000610bb482610beb565b9050919050565b6000610bc682610beb565b9050919050565b60008115159050919050565b6000610be482610ba9565b9050919050565b600073ffffffffffffffffffffffffffffffffffffffff82169050919050565b6000819050919050565b82818337600083830152505050565b610c2d82610cb6565b810181811067ffffffffffffffff82111715610c4c57610c4b610c55565b5b80604052505050565b7f4e487b7100000000000000000000000000000000000000000000000000000000600052604160045260246000fd5b600080fd5b600080fd5b600080fd5b600080fd5b600080fd5b600080fd5b600080fd5b600080fd5b600080fd5b600080fd5b6000601f19601f8301169050919050565b7f4f776e61626c653a206e6577206f776e657220697320746865207a65726f206160008201527f6464726573730000000000000000000000000000000000000000000000000000602082015250565b7f4f776e61626c653a2063616c6c6572206973206e6f7420746865206f776e6572600082015250565b610d4881610ba9565b8114610d5357600080fd5b50565b610d5f81610bbb565b8114610d6a57600080fd5b50565b610d7681610bcd565b8114610d8157600080fd5b50565b610d8d81610bd9565b8114610d9857600080fd5b50565b610da481610c0b565b8114610daf57600080fd5b5056fea26469706673582212205608f2737ab89c1cebf9f7c3b28e2231e7412e8eb1f725a12a5f02f12edc1f8764736f6c63430008070033",
			"opcodes": "PUSH1 0xA0 PUSH1 0x40 MSTORE CALLVALUE DUP1 ISZERO PUSH3 0x11 JUMPI PUSH1 0x0 DUP1 REVERT JUMPDEST POP PUSH1 0x40 MLOAD PUSH3 0x100B CODESIZE SUB DUP1 PUSH3 0x100B DUP4 CODECOPY DUP2 DUP2 ADD PUSH1 0x40 MSTORE DUP2 ADD SWAP1 PUSH3 0x37 SWAP2 SWAP1 PUSH3 0x178 JUMP JUMPDEST PUSH3 0x57 PUSH3 0x4B PUSH3 0x95 PUSH1 0x20 SHL PUSH1 0x20 SHR JUMP JUMPDEST PUSH3 0x9D PUSH1 0x20 SHL PUSH1 0x20 SHR JUMP JUMPDEST DUP1 PUSH20 0xFFFFFFFFFFFFFFFFFFFFFFFFFFFFFFFFFFFFFFFF AND PUSH1 0x80 DUP2 PUSH20 0xFFFFFFFFFFFFFFFFFFFFFFFFFFFFFFFFFFFFFFFF AND PUSH1 0x60 SHL DUP2 MSTORE POP POP POP PUSH3 0x1FD JUMP JUMPDEST PUSH1 0x0 CALLER SWAP1 POP SWAP1 JUMP JUMPDEST PUSH1 0x0 DUP1 PUSH1 0x0 SWAP1 SLOAD SWAP1 PUSH2 0x100 EXP SWAP1 DIV PUSH20 0xFFFFFFFFFFFFFFFFFFFFFFFFFFFFFFFFFFFFFFFF AND SWAP1 POP DUP2 PUSH1 0x0 DUP1 PUSH2 0x100 EXP DUP2 SLOAD DUP2 PUSH20 0xFFFFFFFFFFFFFFFFFFFFFFFFFFFFFFFFFFFFFFFF MUL NOT AND SWAP1 DUP4 PUSH20 0xFFFFFFFFFFFFFFFFFFFFFFFFFFFFFFFFFFFFFFFF AND MUL OR SWAP1 SSTORE POP DUP2 PUSH20 0xFFFFFFFFFFFFFFFFFFFFFFFFFFFFFFFFFFFFFFFF AND DUP2 PUSH20 0xFFFFFFFFFFFFFFFFFFFFFFFFFFFFFFFFFFFFFFFF AND PUSH32 0x8BE0079C531659141344CD1FD0A4F28419497F9722A3DAAFE3B4186F6B6457E0 PUSH1 0x40 MLOAD PUSH1 0x40 MLOAD DUP1 SWAP2 SUB SWAP1 LOG3 POP POP JUMP JUMPDEST PUSH1 0x0 DUP2 MLOAD SWAP1 POP PUSH3 0x172 DUP2 PUSH3 0x1E3 JUMP JUMPDEST SWAP3 SWAP2 POP POP JUMP JUMPDEST PUSH1 0x0 PUSH1 0x20 DUP3 DUP5 SUB SLT ISZERO PUSH3 0x191 JUMPI PUSH3 0x190 PUSH3 0x1DE JUMP JUMPDEST JUMPDEST PUSH1 0x0 PUSH3 0x1A1 DUP5 DUP3 DUP6 ADD PUSH3 0x161 JUMP JUMPDEST SWAP2 POP POP SWAP3 SWAP2 POP POP JUMP JUMPDEST PUSH1 0x0 PUSH3 0x1B7 DUP3 PUSH3 0x1BE JUMP JUMPDEST SWAP1 POP SWAP2 SWAP1 POP JUMP JUMPDEST PUSH1 0x0 PUSH20 0xFFFFFFFFFFFFFFFFFFFFFFFFFFFFFFFFFFFFFFFF DUP3 AND SWAP1 POP SWAP2 SWAP1 POP JUMP JUMPDEST PUSH1 0x0 DUP1 REVERT JUMPDEST PUSH3 0x1EE DUP2 PUSH3 0x1AA JUMP JUMPDEST DUP2 EQ PUSH3 0x1FA JUMPI PUSH1 0x0 DUP1 REVERT JUMPDEST POP JUMP JUMPDEST PUSH1 0x80 MLOAD PUSH1 0x60 SHR PUSH2 0xDE8 PUSH3 0x223 PUSH1 0x0 CODECOPY PUSH1 0x0 DUP2 DUP2 PUSH2 0x2C3 ADD MSTORE PUSH2 0x35C ADD MSTORE PUSH2 0xDE8 PUSH1 0x0 RETURN INVALID PUSH1 0x80 PUSH1 0x40 MSTORE CALLVALUE DUP1 ISZERO PUSH2 0x10 JUMPI PUSH1 0x0 DUP1 REVERT JUMPDEST POP PUSH1 0x4 CALLDATASIZE LT PUSH2 0x4C JUMPI PUSH1 0x0 CALLDATALOAD PUSH1 0xE0 SHR DUP1 PUSH4 0x715018A6 EQ PUSH2 0x51 JUMPI DUP1 PUSH4 0x8DA5CB5B EQ PUSH2 0x5B JUMPI DUP1 PUSH4 0xBD0625AB EQ PUSH2 0x79 JUMPI DUP1 PUSH4 0xF2FDE38B EQ PUSH2 0x95 JUMPI JUMPDEST PUSH1 0x0 DUP1 REVERT JUMPDEST PUSH2 0x59 PUSH2 0xB1 JUMP JUMPDEST STOP JUMPDEST PUSH2 0x63 PUSH2 0x139 JUMP JUMPDEST PUSH1 0x40 MLOAD PUSH2 0x70 SWAP2 SWAP1 PUSH2 0xA41 JUMP JUMPDEST PUSH1 0x40 MLOAD DUP1 SWAP2 SUB SWAP1 RETURN JUMPDEST PUSH2 0x93 PUSH1 0x4 DUP1 CALLDATASIZE SUB DUP2 ADD SWAP1 PUSH2 0x8E SWAP2 SWAP1 PUSH2 0x8FF JUMP JUMPDEST PUSH2 0x162 JUMP JUMPDEST STOP JUMPDEST PUSH2 0xAF PUSH1 0x4 DUP1 CALLDATASIZE SUB DUP2 ADD SWAP1 PUSH2 0xAA SWAP2 SWAP1 PUSH2 0x81A JUMP JUMPDEST PUSH2 0x42C JUMP JUMPDEST STOP JUMPDEST PUSH2 0xB9 PUSH2 0x524 JUMP JUMPDEST PUSH20 0xFFFFFFFFFFFFFFFFFFFFFFFFFFFFFFFFFFFFFFFF AND PUSH2 0xD7 PUSH2 0x139 JUMP JUMPDEST PUSH20 0xFFFFFFFFFFFFFFFFFFFFFFFFFFFFFFFFFFFFFFFF AND EQ PUSH2 0x12D JUMPI PUSH1 0x40 MLOAD PUSH32 0x8C379A000000000000000000000000000000000000000000000000000000000 DUP2 MSTORE PUSH1 0x4 ADD PUSH2 0x124 SWAP1 PUSH2 0xADC JUMP JUMPDEST PUSH1 0x40 MLOAD DUP1 SWAP2 SUB SWAP1 REVERT JUMPDEST PUSH2 0x137 PUSH1 0x0 PUSH2 0x52C JUMP JUMPDEST JUMP JUMPDEST PUSH1 0x0 DUP1 PUSH1 0x0 SWAP1 SLOAD SWAP1 PUSH2 0x100 EXP SWAP1 DIV PUSH20 0xFFFFFFFFFFFFFFFFFFFFFFFFFFFFFFFFFFFFFFFF AND SWAP1 POP SWAP1 JUMP JUMPDEST PUSH2 0x16A PUSH2 0x524 JUMP JUMPDEST PUSH20 0xFFFFFFFFFFFFFFFFFFFFFFFFFFFFFFFFFFFFFFFF AND PUSH2 0x188 PUSH2 0x139 JUMP JUMPDEST PUSH20 0xFFFFFFFFFFFFFFFFFFFFFFFFFFFFFFFFFFFFFFFF AND EQ PUSH2 0x1DE JUMPI PUSH1 0x40 MLOAD PUSH32 0x8C379A000000000000000000000000000000000000000000000000000000000 DUP2 MSTORE PUSH1 0x4 ADD PUSH2 0x1D5 SWAP1 PUSH2 0xADC JUMP JUMPDEST PUSH1 0x40 MLOAD DUP1 SWAP2 SUB SWAP1 REVERT JUMPDEST PUSH1 0x0 DUP1 PUSH1 0x0 DUP5 DUP5 PUSH1 0x4 SWAP1 DUP1 SWAP3 PUSH2 0x1F6 SWAP4 SWAP3 SWAP2 SWAP1 PUSH2 0xB6E JUMP JUMPDEST DUP2 ADD SWAP1 PUSH2 0x203 SWAP2 SWAP1 PUSH2 0x847 JUMP JUMPDEST SWAP3 POP SWAP3 POP SWAP3 POP DUP2 PUSH1 0x0 ADD MLOAD PUSH20 0xFFFFFFFFFFFFFFFFFFFFFFFFFFFFFFFFFFFFFFFF AND PUSH4 0x23B872DD CALLER ADDRESS DUP6 PUSH1 0x80 ADD MLOAD PUSH1 0x40 MLOAD DUP5 PUSH4 0xFFFFFFFF AND PUSH1 0xE0 SHL DUP2 MSTORE PUSH1 0x4 ADD PUSH2 0x24E SWAP4 SWAP3 SWAP2 SWAP1 PUSH2 0xA5C JUMP JUMPDEST PUSH1 0x20 PUSH1 0x40 MLOAD DUP1 DUP4 SUB DUP2 PUSH1 0x0 DUP8 DUP1 EXTCODESIZE ISZERO DUP1 ISZERO PUSH2 0x268 JUMPI PUSH1 0x0 DUP1 REVERT JUMPDEST POP GAS CALL ISZERO DUP1 ISZERO PUSH2 0x27C JUMPI RETURNDATASIZE PUSH1 0x0 DUP1 RETURNDATACOPY RETURNDATASIZE PUSH1 0x0 REVERT JUMPDEST POP POP POP POP PUSH1 0x40 MLOAD RETURNDATASIZE PUSH1 0x1F NOT PUSH1 0x1F DUP3 ADD AND DUP3 ADD DUP1 PUSH1 0x40 MSTORE POP DUP2 ADD SWAP1 PUSH2 0x2A0 SWAP2 SWAP1 PUSH2 0x8D2 JUMP JUMPDEST POP DUP2 PUSH1 0x0 ADD MLOAD PUSH20 0xFFFFFFFFFFFFFFFFFFFFFFFFFFFFFFFFFFFFFFFF AND PUSH4 0x95EA7B3 PUSH32 0x0 DUP5 PUSH1 0x80 ADD MLOAD PUSH1 0x40 MLOAD DUP4 PUSH4 0xFFFFFFFF AND PUSH1 0xE0 SHL DUP2 MSTORE PUSH1 0x4 ADD PUSH2 0x304 SWAP3 SWAP2 SWAP1 PUSH2 0xA93 JUMP JUMPDEST PUSH1 0x20 PUSH1 0x40 MLOAD DUP1 DUP4 SUB DUP2 PUSH1 0x0 DUP8 DUP1 EXTCODESIZE ISZERO DUP1 ISZERO PUSH2 0x31E JUMPI PUSH1 0x0 DUP1 REVERT JUMPDEST POP GAS CALL ISZERO DUP1 ISZERO PUSH2 0x332 JUMPI RETURNDATASIZE PUSH1 0x0 DUP1 RETURNDATACOPY RETURNDATASIZE PUSH1 0x0 REVERT JUMPDEST POP POP POP POP PUSH1 0x40 MLOAD RETURNDATASIZE PUSH1 0x1F NOT PUSH1 0x1F DUP3 ADD AND DUP3 ADD DUP1 PUSH1 0x40 MSTORE POP DUP2 ADD SWAP1 PUSH2 0x356 SWAP2 SWAP1 PUSH2 0x8D2 JUMP JUMPDEST POP PUSH1 0x0 DUP1 PUSH32 0x0 PUSH20 0xFFFFFFFFFFFFFFFFFFFFFFFFFFFFFFFFFFFFFFFF AND DUP8 DUP8 PUSH1 0x40 MLOAD PUSH2 0x3A1 SWAP3 SWAP2 SWAP1 PUSH2 0xA28 JUMP JUMPDEST PUSH1 0x0 PUSH1 0x40 MLOAD DUP1 DUP4 SUB DUP2 PUSH1 0x0 DUP7 GAS CALL SWAP2 POP POP RETURNDATASIZE DUP1 PUSH1 0x0 DUP2 EQ PUSH2 0x3DE JUMPI PUSH1 0x40 MLOAD SWAP2 POP PUSH1 0x1F NOT PUSH1 0x3F RETURNDATASIZE ADD AND DUP3 ADD PUSH1 0x40 MSTORE RETURNDATASIZE DUP3 MSTORE RETURNDATASIZE PUSH1 0x0 PUSH1 0x20 DUP5 ADD RETURNDATACOPY PUSH2 0x3E3 JUMP JUMPDEST PUSH1 0x60 SWAP2 POP JUMPDEST POP SWAP2 POP SWAP2 POP DUP2 ISZERO PUSH2 0x41D JUMPI PUSH1 0x0 DUP1 DUP3 DUP1 PUSH1 0x20 ADD SWAP1 MLOAD DUP2 ADD SWAP1 PUSH2 0x405 SWAP2 SWAP1 PUSH2 0x95F JUMP JUMPDEST SWAP2 POP SWAP2 POP DUP10 DUP3 LT ISZERO PUSH2 0x416 JUMPI PUSH1 0x0 DUP1 REVERT JUMPDEST POP POP PUSH2 0x422 JUMP JUMPDEST PUSH1 0x0 DUP1 REVERT JUMPDEST POP POP POP POP POP POP POP POP JUMP JUMPDEST PUSH2 0x434 PUSH2 0x524 JUMP JUMPDEST PUSH20 0xFFFFFFFFFFFFFFFFFFFFFFFFFFFFFFFFFFFFFFFF AND PUSH2 0x452 PUSH2 0x139 JUMP JUMPDEST PUSH20 0xFFFFFFFFFFFFFFFFFFFFFFFFFFFFFFFFFFFFFFFF AND EQ PUSH2 0x4A8 JUMPI PUSH1 0x40 MLOAD PUSH32 0x8C379A000000000000000000000000000000000000000000000000000000000 DUP2 MSTORE PUSH1 0x4 ADD PUSH2 0x49F SWAP1 PUSH2 0xADC JUMP JUMPDEST PUSH1 0x40 MLOAD DUP1 SWAP2 SUB SWAP1 REVERT JUMPDEST PUSH1 0x0 PUSH20 0xFFFFFFFFFFFFFFFFFFFFFFFFFFFFFFFFFFFFFFFF AND DUP2 PUSH20 0xFFFFFFFFFFFFFFFFFFFFFFFFFFFFFFFFFFFFFFFF AND EQ ISZERO PUSH2 0x518 JUMPI PUSH1 0x40 MLOAD PUSH32 0x8C379A000000000000000000000000000000000000000000000000000000000 DUP2 MSTORE PUSH1 0x4 ADD PUSH2 0x50F SWAP1 PUSH2 0xABC JUMP JUMPDEST PUSH1 0x40 MLOAD DUP1 SWAP2 SUB SWAP1 REVERT JUMPDEST PUSH2 0x521 DUP2 PUSH2 0x52C JUMP JUMPDEST POP JUMP JUMPDEST PUSH1 0x0 CALLER SWAP1 POP SWAP1 JUMP JUMPDEST PUSH1 0x0 DUP1 PUSH1 0x0 SWAP1 SLOAD SWAP1 PUSH2 0x100 EXP SWAP1 DIV PUSH20 0xFFFFFFFFFFFFFFFFFFFFFFFFFFFFFFFFFFFFFFFF AND SWAP1 POP DUP2 PUSH1 0x0 DUP1 PUSH2 0x100 EXP DUP2 SLOAD DUP2 PUSH20 0xFFFFFFFFFFFFFFFFFFFFFFFFFFFFFFFFFFFFFFFF MUL NOT AND SWAP1 DUP4 PUSH20 0xFFFFFFFFFFFFFFFFFFFFFFFFFFFFFFFFFFFFFFFF AND MUL OR SWAP1 SSTORE POP DUP2 PUSH20 0xFFFFFFFFFFFFFFFFFFFFFFFFFFFFFFFFFFFFFFFF AND DUP2 PUSH20 0xFFFFFFFFFFFFFFFFFFFFFFFFFFFFFFFFFFFFFFFF AND PUSH32 0x8BE0079C531659141344CD1FD0A4F28419497F9722A3DAAFE3B4186F6B6457E0 PUSH1 0x40 MLOAD PUSH1 0x40 MLOAD DUP1 SWAP2 SUB SWAP1 LOG3 POP POP JUMP JUMPDEST PUSH1 0x0 PUSH2 0x603 PUSH2 0x5FE DUP5 PUSH2 0xB21 JUMP JUMPDEST PUSH2 0xAFC JUMP JUMPDEST SWAP1 POP DUP3 DUP2 MSTORE PUSH1 0x20 DUP2 ADD DUP5 DUP5 DUP5 ADD GT ISZERO PUSH2 0x61F JUMPI PUSH2 0x61E PUSH2 0xCA7 JUMP JUMPDEST JUMPDEST PUSH2 0x62A DUP5 DUP3 DUP6 PUSH2 0xC15 JUMP JUMPDEST POP SWAP4 SWAP3 POP POP POP JUMP JUMPDEST PUSH1 0x0 DUP2 CALLDATALOAD SWAP1 POP PUSH2 0x641 DUP2 PUSH2 0xD3F JUMP JUMPDEST SWAP3 SWAP2 POP POP JUMP JUMPDEST PUSH1 0x0 DUP2 CALLDATALOAD SWAP1 POP PUSH2 0x656 DUP2 PUSH2 0xD56 JUMP JUMPDEST SWAP3 SWAP2 POP POP JUMP JUMPDEST PUSH1 0x0 DUP2 MLOAD SWAP1 POP PUSH2 0x66B DUP2 PUSH2 0xD6D JUMP JUMPDEST SWAP3 SWAP2 POP POP JUMP JUMPDEST PUSH1 0x0 DUP1 DUP4 PUSH1 0x1F DUP5 ADD SLT PUSH2 0x687 JUMPI PUSH2 0x686 PUSH2 0xC89 JUMP JUMPDEST JUMPDEST DUP3 CALLDATALOAD SWAP1 POP PUSH8 0xFFFFFFFFFFFFFFFF DUP2 GT ISZERO PUSH2 0x6A4 JUMPI PUSH2 0x6A3 PUSH2 0xC84 JUMP JUMPDEST JUMPDEST PUSH1 0x20 DUP4 ADD SWAP2 POP DUP4 PUSH1 0x1 DUP3 MUL DUP4 ADD GT ISZERO PUSH2 0x6C0 JUMPI PUSH2 0x6BF PUSH2 0xCA2 JUMP JUMPDEST JUMPDEST SWAP3 POP SWAP3 SWAP1 POP JUMP JUMPDEST PUSH1 0x0 DUP3 PUSH1 0x1F DUP4 ADD SLT PUSH2 0x6DC JUMPI PUSH2 0x6DB PUSH2 0xC89 JUMP JUMPDEST JUMPDEST DUP2 CALLDATALOAD PUSH2 0x6EC DUP5 DUP3 PUSH1 0x20 DUP7 ADD PUSH2 0x5F0 JUMP JUMPDEST SWAP2 POP POP SWAP3 SWAP2 POP POP JUMP JUMPDEST PUSH1 0x0 DUP2 CALLDATALOAD SWAP1 POP PUSH2 0x704 DUP2 PUSH2 0xD84 JUMP JUMPDEST SWAP3 SWAP2 POP POP JUMP JUMPDEST PUSH1 0x0 PUSH2 0x100 DUP3 DUP5 SUB SLT ISZERO PUSH2 0x721 JUMPI PUSH2 0x720 PUSH2 0xC8E JUMP JUMPDEST JUMPDEST PUSH2 0x72C PUSH2 0x100 PUSH2 0xAFC JUMP JUMPDEST SWAP1 POP PUSH1 0x0 PUSH2 0x73C DUP5 DUP3 DUP6 ADD PUSH2 0x6F5 JUMP JUMPDEST PUSH1 0x0 DUP4 ADD MSTORE POP PUSH1 0x20 PUSH2 0x750 DUP5 DUP3 DUP6 ADD PUSH2 0x6F5 JUMP JUMPDEST PUSH1 0x20 DUP4 ADD MSTORE POP PUSH1 0x40 PUSH2 0x764 DUP5 DUP3 DUP6 ADD PUSH2 0x632 JUMP JUMPDEST PUSH1 0x40 DUP4 ADD MSTORE POP PUSH1 0x60 PUSH2 0x778 DUP5 DUP3 DUP6 ADD PUSH2 0x632 JUMP JUMPDEST PUSH1 0x60 DUP4 ADD MSTORE POP PUSH1 0x80 PUSH2 0x78C DUP5 DUP3 DUP6 ADD PUSH2 0x7F0 JUMP JUMPDEST PUSH1 0x80 DUP4 ADD MSTORE POP PUSH1 0xA0 PUSH2 0x7A0 DUP5 DUP3 DUP6 ADD PUSH2 0x7F0 JUMP JUMPDEST PUSH1 0xA0 DUP4 ADD MSTORE POP PUSH1 0xC0 PUSH2 0x7B4 DUP5 DUP3 DUP6 ADD PUSH2 0x7F0 JUMP JUMPDEST PUSH1 0xC0 DUP4 ADD MSTORE POP PUSH1 0xE0 DUP3 ADD CALLDATALOAD PUSH8 0xFFFFFFFFFFFFFFFF DUP2 GT ISZERO PUSH2 0x7D8 JUMPI PUSH2 0x7D7 PUSH2 0xC98 JUMP JUMPDEST JUMPDEST PUSH2 0x7E4 DUP5 DUP3 DUP6 ADD PUSH2 0x6C7 JUMP JUMPDEST PUSH1 0xE0 DUP4 ADD MSTORE POP SWAP3 SWAP2 POP POP JUMP JUMPDEST PUSH1 0x0 DUP2 CALLDATALOAD SWAP1 POP PUSH2 0x7FF DUP2 PUSH2 0xD9B JUMP JUMPDEST SWAP3 SWAP2 POP POP JUMP JUMPDEST PUSH1 0x0 DUP2 MLOAD SWAP1 POP PUSH2 0x814 DUP2 PUSH2 0xD9B JUMP JUMPDEST SWAP3 SWAP2 POP POP JUMP JUMPDEST PUSH1 0x0 PUSH1 0x20 DUP3 DUP5 SUB SLT ISZERO PUSH2 0x830 JUMPI PUSH2 0x82F PUSH2 0xCB1 JUMP JUMPDEST JUMPDEST PUSH1 0x0 PUSH2 0x83E DUP5 DUP3 DUP6 ADD PUSH2 0x632 JUMP JUMPDEST SWAP2 POP POP SWAP3 SWAP2 POP POP JUMP JUMPDEST PUSH1 0x0 DUP1 PUSH1 0x0 PUSH1 0x60 DUP5 DUP7 SUB SLT ISZERO PUSH2 0x860 JUMPI PUSH2 0x85F PUSH2 0xCB1 JUMP JUMPDEST JUMPDEST PUSH1 0x0 PUSH2 0x86E DUP7 DUP3 DUP8 ADD PUSH2 0x647 JUMP JUMPDEST SWAP4 POP POP PUSH1 0x20 DUP5 ADD CALLDATALOAD PUSH8 0xFFFFFFFFFFFFFFFF DUP2 GT ISZERO PUSH2 0x88F JUMPI PUSH2 0x88E PUSH2 0xCAC JUMP JUMPDEST JUMPDEST PUSH2 0x89B DUP7 DUP3 DUP8 ADD PUSH2 0x70A JUMP JUMPDEST SWAP3 POP POP PUSH1 0x40 DUP5 ADD CALLDATALOAD PUSH8 0xFFFFFFFFFFFFFFFF DUP2 GT ISZERO PUSH2 0x8BC JUMPI PUSH2 0x8BB PUSH2 0xCAC JUMP JUMPDEST JUMPDEST PUSH2 0x8C8 DUP7 DUP3 DUP8 ADD PUSH2 0x6C7 JUMP JUMPDEST SWAP2 POP POP SWAP3 POP SWAP3 POP SWAP3 JUMP JUMPDEST PUSH1 0x0 PUSH1 0x20 DUP3 DUP5 SUB SLT ISZERO PUSH2 0x8E8 JUMPI PUSH2 0x8E7 PUSH2 0xCB1 JUMP JUMPDEST JUMPDEST PUSH1 0x0 PUSH2 0x8F6 DUP5 DUP3 DUP6 ADD PUSH2 0x65C JUMP JUMPDEST SWAP2 POP POP SWAP3 SWAP2 POP POP JUMP JUMPDEST PUSH1 0x0 DUP1 PUSH1 0x0 PUSH1 0x40 DUP5 DUP7 SUB SLT ISZERO PUSH2 0x918 JUMPI PUSH2 0x917 PUSH2 0xCB1 JUMP JUMPDEST JUMPDEST PUSH1 0x0 PUSH2 0x926 DUP7 DUP3 DUP8 ADD PUSH2 0x7F0 JUMP JUMPDEST SWAP4 POP POP PUSH1 0x20 DUP5 ADD CALLDATALOAD PUSH8 0xFFFFFFFFFFFFFFFF DUP2 GT ISZERO PUSH2 0x947 JUMPI PUSH2 0x946 PUSH2 0xCAC JUMP JUMPDEST JUMPDEST PUSH2 0x953 DUP7 DUP3 DUP8 ADD PUSH2 0x671 JUMP JUMPDEST SWAP3 POP SWAP3 POP POP SWAP3 POP SWAP3 POP SWAP3 JUMP JUMPDEST PUSH1 0x0 DUP1 PUSH1 0x40 DUP4 DUP6 SUB SLT ISZERO PUSH2 0x976 JUMPI PUSH2 0x975 PUSH2 0xCB1 JUMP JUMPDEST JUMPDEST PUSH1 0x0 PUSH2 0x984 DUP6 DUP3 DUP7 ADD PUSH2 0x805 JUMP JUMPDEST SWAP3 POP POP PUSH1 0x20 PUSH2 0x995 DUP6 DUP3 DUP7 ADD PUSH2 0x805 JUMP JUMPDEST SWAP2 POP POP SWAP3 POP SWAP3 SWAP1 POP JUMP JUMPDEST PUSH2 0x9A8 DUP2 PUSH2 0xBA9 JUMP JUMPDEST DUP3 MSTORE POP POP JUMP JUMPDEST PUSH1 0x0 PUSH2 0x9BA DUP4 DUP6 PUSH2 0xB52 JUMP JUMPDEST SWAP4 POP PUSH2 0x9C7 DUP4 DUP6 DUP5 PUSH2 0xC15 JUMP JUMPDEST DUP3 DUP5 ADD SWAP1 POP SWAP4 SWAP3 POP POP POP JUMP JUMPDEST PUSH1 0x0 PUSH2 0x9E0 PUSH1 0x26 DUP4 PUSH2 0xB5D JUMP JUMPDEST SWAP2 POP PUSH2 0x9EB DUP3 PUSH2 0xCC7 JUMP JUMPDEST PUSH1 0x40 DUP3 ADD SWAP1 POP SWAP2 SWAP1 POP JUMP JUMPDEST PUSH1 0x0 PUSH2 0xA03 PUSH1 0x20 DUP4 PUSH2 0xB5D JUMP JUMPDEST SWAP2 POP PUSH2 0xA0E DUP3 PUSH2 0xD16 JUMP JUMPDEST PUSH1 0x20 DUP3 ADD SWAP1 POP SWAP2 SWAP1 POP JUMP JUMPDEST PUSH2 0xA22 DUP2 PUSH2 0xC0B JUMP JUMPDEST DUP3 MSTORE POP POP JUMP JUMPDEST PUSH1 0x0 PUSH2 0xA35 DUP3 DUP5 DUP7 PUSH2 0x9AE JUMP JUMPDEST SWAP2 POP DUP2 SWAP1 POP SWAP4 SWAP3 POP POP POP JUMP JUMPDEST PUSH1 0x0 PUSH1 0x20 DUP3 ADD SWAP1 POP PUSH2 0xA56 PUSH1 0x0 DUP4 ADD DUP5 PUSH2 0x99F JUMP JUMPDEST SWAP3 SWAP2 POP POP JUMP JUMPDEST PUSH1 0x0 PUSH1 0x60 DUP3 ADD SWAP1 POP PUSH2 0xA71 PUSH1 0x0 DUP4 ADD DUP7 PUSH2 0x99F JUMP JUMPDEST PUSH2 0xA7E PUSH1 0x20 DUP4 ADD DUP6 PUSH2 0x99F JUMP JUMPDEST PUSH2 0xA8B PUSH1 0x40 DUP4 ADD DUP5 PUSH2 0xA19 JUMP JUMPDEST SWAP5 SWAP4 POP POP POP POP JUMP JUMPDEST PUSH1 0x0 PUSH1 0x40 DUP3 ADD SWAP1 POP PUSH2 0xAA8 PUSH1 0x0 DUP4 ADD DUP6 PUSH2 0x99F JUMP JUMPDEST PUSH2 0xAB5 PUSH1 0x20 DUP4 ADD DUP5 PUSH2 0xA19 JUMP JUMPDEST SWAP4 SWAP3 POP POP POP JUMP JUMPDEST PUSH1 0x0 PUSH1 0x20 DUP3 ADD SWAP1 POP DUP2 DUP2 SUB PUSH1 0x0 DUP4 ADD MSTORE PUSH2 0xAD5 DUP2 PUSH2 0x9D3 JUMP JUMPDEST SWAP1 POP SWAP2 SWAP1 POP JUMP JUMPDEST PUSH1 0x0 PUSH1 0x20 DUP3 ADD SWAP1 POP DUP2 DUP2 SUB PUSH1 0x0 DUP4 ADD MSTORE PUSH2 0xAF5 DUP2 PUSH2 0x9F6 JUMP JUMPDEST SWAP1 POP SWAP2 SWAP1 POP JUMP JUMPDEST PUSH1 0x0 PUSH2 0xB06 PUSH2 0xB17 JUMP JUMPDEST SWAP1 POP PUSH2 0xB12 DUP3 DUP3 PUSH2 0xC24 JUMP JUMPDEST SWAP2 SWAP1 POP JUMP JUMPDEST PUSH1 0x0 PUSH1 0x40 MLOAD SWAP1 POP SWAP1 JUMP JUMPDEST PUSH1 0x0 PUSH8 0xFFFFFFFFFFFFFFFF DUP3 GT ISZERO PUSH2 0xB3C JUMPI PUSH2 0xB3B PUSH2 0xC55 JUMP JUMPDEST JUMPDEST PUSH2 0xB45 DUP3 PUSH2 0xCB6 JUMP JUMPDEST SWAP1 POP PUSH1 0x20 DUP2 ADD SWAP1 POP SWAP2 SWAP1 POP JUMP JUMPDEST PUSH1 0x0 DUP2 SWAP1 POP SWAP3 SWAP2 POP POP JUMP JUMPDEST PUSH1 0x0 DUP3 DUP3 MSTORE PUSH1 0x20 DUP3 ADD SWAP1 POP SWAP3 SWAP2 POP POP JUMP JUMPDEST PUSH1 0x0 DUP1 DUP6 DUP6 GT ISZERO PUSH2 0xB82 JUMPI PUSH2 0xB81 PUSH2 0xC9D JUMP JUMPDEST JUMPDEST DUP4 DUP7 GT ISZERO PUSH2 0xB93 JUMPI PUSH2 0xB92 PUSH2 0xC93 JUMP JUMPDEST JUMPDEST PUSH1 0x1 DUP6 MUL DUP4 ADD SWAP2 POP DUP5 DUP7 SUB SWAP1 POP SWAP5 POP SWAP5 SWAP3 POP POP POP JUMP JUMPDEST PUSH1 0x0 PUSH2 0xBB4 DUP3 PUSH2 0xBEB JUMP JUMPDEST SWAP1 POP SWAP2 SWAP1 POP JUMP JUMPDEST PUSH1 0x0 PUSH2 0xBC6 DUP3 PUSH2 0xBEB JUMP JUMPDEST SWAP1 POP SWAP2 SWAP1 POP JUMP JUMPDEST PUSH1 0x0 DUP2 ISZERO ISZERO SWAP1 POP SWAP2 SWAP1 POP JUMP JUMPDEST PUSH1 0x0 PUSH2 0xBE4 DUP3 PUSH2 0xBA9 JUMP JUMPDEST SWAP1 POP SWAP2 SWAP1 POP JUMP JUMPDEST PUSH1 0x0 PUSH20 0xFFFFFFFFFFFFFFFFFFFFFFFFFFFFFFFFFFFFFFFF DUP3 AND SWAP1 POP SWAP2 SWAP1 POP JUMP JUMPDEST PUSH1 0x0 DUP2 SWAP1 POP SWAP2 SWAP1 POP JUMP JUMPDEST DUP3 DUP2 DUP4 CALLDATACOPY PUSH1 0x0 DUP4 DUP4 ADD MSTORE POP POP POP JUMP JUMPDEST PUSH2 0xC2D DUP3 PUSH2 0xCB6 JUMP JUMPDEST DUP2 ADD DUP2 DUP2 LT PUSH8 0xFFFFFFFFFFFFFFFF DUP3 GT OR ISZERO PUSH2 0xC4C JUMPI PUSH2 0xC4B PUSH2 0xC55 JUMP JUMPDEST JUMPDEST DUP1 PUSH1 0x40 MSTORE POP POP POP JUMP JUMPDEST PUSH32 0x4E487B7100000000000000000000000000000000000000000000000000000000 PUSH1 0x0 MSTORE PUSH1 0x41 PUSH1 0x4 MSTORE PUSH1 0x24 PUSH1 0x0 REVERT JUMPDEST PUSH1 0x0 DUP1 REVERT JUMPDEST PUSH1 0x0 DUP1 REVERT JUMPDEST PUSH1 0x0 DUP1 REVERT JUMPDEST PUSH1 0x0 DUP1 REVERT JUMPDEST PUSH1 0x0 DUP1 REVERT JUMPDEST PUSH1 0x0 DUP1 REVERT JUMPDEST PUSH1 0x0 DUP1 REVERT JUMPDEST PUSH1 0x0 DUP1 REVERT JUMPDEST PUSH1 0x0 DUP1 REVERT JUMPDEST PUSH1 0x0 DUP1 REVERT JUMPDEST PUSH1 0x0 PUSH1 0x1F NOT PUSH1 0x1F DUP4 ADD AND SWAP1 POP SWAP2 SWAP1 POP JUMP JUMPDEST PUSH32 0x4F776E61626C653A206E6577206F776E657220697320746865207A65726F2061 PUSH1 0x0 DUP3 ADD MSTORE PUSH32 0x6464726573730000000000000000000000000000000000000000000000000000 PUSH1 0x20 DUP3 ADD MSTORE POP JUMP JUMPDEST PUSH32 0x4F776E61626C653A2063616C6C6572206973206E6F7420746865206F776E6572 PUSH1 0x0 DUP3 ADD MSTORE POP JUMP JUMPDEST PUSH2 0xD48 DUP2 PUSH2 0xBA9 JUMP JUMPDEST DUP2 EQ PUSH2 0xD53 JUMPI PUSH1 0x0 DUP1 REVERT JUMPDEST POP JUMP JUMPDEST PUSH2 0xD5F DUP2 PUSH2 0xBBB JUMP JUMPDEST DUP2 EQ PUSH2 0xD6A JUMPI PUSH1 0x0 DUP1 REVERT JUMPDEST POP JUMP JUMPDEST PUSH2 0xD76 DUP2 PUSH2 0xBCD JUMP JUMPDEST DUP2 EQ PUSH2 0xD81 JUMPI PUSH1 0x0 DUP1 REVERT JUMPDEST POP JUMP JUMPDEST PUSH2 0xD8D DUP2 PUSH2 0xBD9 JUMP JUMPDEST DUP2 EQ PUSH2 0xD98 JUMPI PUSH1 0x0 DUP1 REVERT JUMPDEST POP JUMP JUMPDEST PUSH2 0xDA4 DUP2 PUSH2 0xC0B JUMP JUMPDEST DUP2 EQ PUSH2 0xDAF JUMPI PUSH1 0x0 DUP1 REVERT JUMPDEST POP JUMP INVALID LOG2 PUSH5 0x6970667358 0x22 SLT KECCAK256 JUMP ADDMOD CALLCODE PUSH20 0x7AB89C1CEBF9F7C3B28E2231E7412E8EB1F725A1 0x2A 0x5F MUL CALL 0x2E 0xDC 0x1F DUP8 PUSH5 0x736F6C6343 STOP ADDMOD SMOD STOP CALLER "
		},
		"gasEstimates": {
			"creation": {
				"codeDepositCost": "712000",
				"executionCost": "infinite",
				"totalCost": "infinite"
			},
			"external": {
				"owner()": "2522",
				"renounceOwnership()": "30352",
				"swap(uint256,bytes)": "infinite",
				"transferOwnership(address)": "30767"
			}
		},
		"methodIdentifiers": {
			"owner()": "8da5cb5b",
			"renounceOwnership()": "715018a6",
			"swap(uint256,bytes)": "bd0625ab",
			"transferOwnership(address)": "f2fde38b"
		}
	},
	"abi": [
		{
			"inputs": [
				{
					"internalType": "address",
					"name": "router",
					"type": "address"
				}
			],
			"stateMutability": "nonpayable",
			"type": "constructor"
		},
		{
			"anonymous": false,
			"inputs": [
				{
					"indexed": true,
					"internalType": "address",
					"name": "previousOwner",
					"type": "address"
				},
				{
					"indexed": true,
					"internalType": "address",
					"name": "newOwner",
					"type": "address"
				}
			],
			"name": "OwnershipTransferred",
			"type": "event"
		},
		{
			"inputs": [],
			"name": "owner",
			"outputs": [
				{
					"internalType": "address",
					"name": "",
					"type": "address"
				}
			],
			"stateMutability": "view",
			"type": "function"
		},
		{
			"inputs": [],
			"name": "renounceOwnership",
			"outputs": [],
			"stateMutability": "nonpayable",
			"type": "function"
		},
		{
			"inputs": [
				{
					"internalType": "uint256",
					"name": "minOut",
					"type": "uint256"
				},
				{
					"internalType": "bytes",
					"name": "_data",
					"type": "bytes"
				}
			],
			"name": "swap",
			"outputs": [],
			"stateMutability": "nonpayable",
			"type": "function"
		},
		{
			"inputs": [
				{
					"internalType": "address",
					"name": "newOwner",
					"type": "address"
				}
			],
			"name": "transferOwnership",
			"outputs": [],
			"stateMutability": "nonpayable",
			"type": "function"
		}
	]
}